:08122E0002510000024F000014
:1014A7001212627F207EA112140F12158BE92406F7
:0C14B700F9E43AFA120C7D120C9D80E75B
:10134C004C696768743A25642C5261696E3A25645D
:10135C002C57696E643A25642C54656D703A25647B
:08136C002C48756D3A25640060
:0812360002190000021700007C
:1012620012154012152F7508FF750912750AFA75C5
:101272000BFF750C13750D23750EFF750F1075108E
:10128200237511FF7512117513B97514FF751515B4
:04129200751660224B
:07158B007B007A00790822C1
:1012FA00EF24FE600F1460182402701A7DAA7C0580
:10130A007F0180067DAA7C05E4FF1212967F0122E6
:09131A001215927F01227F0022CE
:10132300EF24FE600F1460182402701A7DAA7C0556
:101333007F0180067DAA7C05E4FF1212C87F01228B
:091343001215967F01227F0022A1
:101023007E007F027D007B007A007922120CA37E72
:10103300007F057D007B007A00791B120CA37F01E2
:1010430012117A8F1B7F0212117A8F1E7F031211E6
:101053007A8F1F120E6278227C007D007E007F0251
:10106300120C2C85231D85221C7B007A0079221209
:10107300148A7B007A00792312148A120D6B7F0184
:01108300224A
:100D6B00E51BC394327480948040047E0180027E24
:100D7B0000AF06EF7055E51EC3943274809480402B
:100D8B00047E0180027E00AF06EF703FE51FC39427
:100D9B00327480948040047E0180027E00AF06EFA7
:100DAB007029E51DC394327480948040047E0180C9
:100DBB00027E00AF06EF7013E51CC394327480946F
:100DCB008040047E0180027E00AF06EF60407F0012
:100DDB007E201214C3EF7002FF22850A82850983DD
:100DEB007F01120CA18516828515837F01120CA140
:100DFB00850D82850C837F01120CA18516828515CA
:100E0B0083E4FF120CA11211B9E4FDFF80417F00B6
:100E1B007E201214C3EF64017002FF2285168285B7
:100E2B0015837F01120CA1850D82850C837F021225
:100E3B000CA1851682851583E4FF120CA1850A820D
:100E4B008509837F02120CA11211B97D017F007EEF
:060E5B002012142E7F019D
:010E6100226E
:1011B9007E007F327D007B017A007946120CA3758F
:1011C90027FF75281375294C851B2A851E2B851F1A
:1011D9002C851D2D851C2E7B017A00794612085C11
:0B11E9007B017A00794612148A7F0116
:0111F40022D8
:10140F00EF4E601A8E198F1AE4F517F518C3E51809
:0F141F00951AE5196480F8E51764809840EF226C
:10154000D2AF758911D2A9758CFF758AF6D28C221B
:10152F0075CAD975CBFF75C834759850D2ACD2AF88
:01153F002289
:0C156000EF6004D2A48002C2A47F01222C
:03000B000214F4E8
:1014F400C0E0758CFF758AF60518E51870020517AB
:05150400B2A7D0E032A7
:08123E0002480000023D00001F
:03159A00DFFE224F
:10146C00D3EF9400EE940040147D6E7C00ED1D7063
:0D147C00011CED4C70F7EF1F70E61E80E3C1
:011489002240
:1014DD00D2A37F0212159AC2A37F1E7E0012146C36
:0714ED00D2A37F1E02159A35
:1013C300E4FEFDEDC3940874809480501630A3FDB1
:1013D3007F0812159AEE25E0FE30A3010E20A3FD2F
:0513E3000D80E0AF06E3
:0113E80022E2
:100E62007E007F027D007B007A007924120CA3129F
:100E720014DD30A303020F0E30A3FD7F2812159A52
:100E82001213C38F261213C3A9071213C3AC07127E
:100E920013C3AB071213C38F2B7F1912159AE9FFE5
:100EA200E5262FFFE433FEEC7583002FFFE5833E3A
:100EB200FEEB2FFFE5833EFEE52BB5070EE583B57E
:100EC200060985262789288C298B2A8527248529A6
:100ED20025E52775F00A842430F53FE52775F00AE9
:100EE20084E5F02430F5407541527542487543203F
:100EF200754420E52975F00A842430F545E5297505
:100F0200F00A84E5F02430F5467547437B007A0009
:020F1200792440
:010F140022BA
:07150900C2AF8CE3EDF5E435
:0C151000C2AF53E71843E70143E7802215
:0B15780053E77FE4F5E5F5E6D2AF2273
:0815830075E64675E6B9002289
:0414C300AD07AC06BF
:1014C700E4FF12150953E5F843E501121583AFE26E
:0514D700121578D2AFF0
:0114DC0022ED
:10142E00AB07AA06C2AF8AE3EBF5E412151053E53B
:0F143E00F843E5028DE2121583121578D2AF2222
:10151C00AD07AC0612150953E5F843E50312158324
:03152C000215782D
:081246000255000002530000F4
:10117A00E4FEEFFD3395E0FCC364809480400BD31A
:10118A00ED9407EC6480948040037F0022EF139271
:10119A00B4EFA2E192B5A2E292B6C2A5C2B2D2B2AD
:0E11AA0000C2B230A6FDD2A5AE80C2A5AF062F
:0111B8002214
:02159D0020002C
:0B124E00024D0000024B0000014A00AE
:10148A007527FF75281575299D752A01752B007515
:0C149A002C3212113AEF7002FF227F0189
:0114A6002223
:06113A008B248A258926A2
:10114000E4F52D12144DE52DC3952A502AAB24AA9F
:1011500025A926121374AE2BAF2C7C007D64120CD3
:101160006B12140FAB27AA28A9291213E9EF600309
:091170007F0122052D80CF7F00D4
:011179002253
:10144D00E4FFEFC3944674809480500F74002FF521
:0E145D0082E43400F583E4F00F80E7E4F54A02
:01146B00225E
:101374008B2E8A2F893012144DAB2EAA2FA930122E
:101384000C5260130530E5307002052F14F9120C6D
:0813940052FF12156C80E222E9
:0C156C00C2AC8F993099FDC299D2AC221C
:1013E9008B2E8A2F8930C2AC8B348A3589367B01A2
:1013F9007A007900120FA1E94A4B6005D2AC7F014E
:0614090022D2AC7F00229C
:030023000211F5D2
:1011F500C0E0C083C082C0D0309820C2987400255A
:101205004AF582E43400F583E599F0054AC3E54AD9
:101215009446748094804003754A00309902C299BF
:09122500D0D0D082D083D0E03299
:10155000050109080A02060450109080A02060408E
:081259000259000002570000D9
:061296008F228C238D2441
:10129C00852325852426E4F527F528C3E528952400
:1012AC00E527952350130528E528700205277D01B5
:0C12BC007C00AF221210DF80E2021592CD
:0612C8008F228C238D240F
:1012CE00852325852426E4F527F528C3E5289524CE
:1012DE00E527952350130528E528700205277D0183
:0C12EE007C00AF2212108480E2021596F2
:04159200E4F59022CA
:04159600E4F59022C6
:041084008C298D2AFC
:10108800E4F52BEF6028E4F52BC3E52B9408748076
:1010980094805042E52B90155893F590AE29AF2ACD
:1010A8007C007D64120C6B12140F052B80DB752BF2
:1010B80007D3E52B940074809480401AE52B901593
:1010C8005893F590AE29AF2A7C007D64120C6B1200
:0610D800140F152B80DB54
:0110DE0022EF
:0410DF008C298D2AA1
:1010E300E4F52BEF6028E4F52BC3E52B940874801B
:1010F30094805042E52B90155093F590AE29AF2A7A
:101103007C007D64120C6B12140F052B80DB752B96
:1011130007D3E52B940074809480401AE52B901537
:101123005093F590AE29AF2A7C007D64120C6B12AC
:06113300140F152B80DBF8
:011139002293
:03000000020F15D7
:0C0F1500787FE4F6D8FD75815A020F5C6D
:100B5C00E709F608DFFA8046E709F208DFFA803E7B
:100B6C0088828C83E709F0A3DFFA8032E309F60868
:100B7C00DFFA8078E309F208DFFA807088828C83D0
:100B8C00E309F0A3DFFA806489828A83E0A3F60884
:100B9C00DFFA805889828A83E0A3F208DFFA804C5E
:100BAC0080D280FA80C680D4806980F28033801035
:100BBC0080A680EA809A80A880DA80E280CA80339E
:100BCC0089828A83ECFAE493A3C8C582C8CCC58316
:100BDC00CCF0A3C8C582C8CCC583CCDFE9DEE780E6
:100BEC000D89828A83E493A3F608DFF9ECFAA9F065
:100BFC00EDFB2289828A83ECFAE0A3C8C582C8CCBB
:100C0C00C583CCF0A3C8C582C8CCC583CCDFEADED3
:100C1C00E880DB89828A83E493A3F208DFF980CC35
:100C2C0088F0EF60010E4E60C388F0ED2402B4042E
:100C3C000050B9F582EB2402B4040050AF232345D5
:060C4C008223900BAC7343
:100C5200BB010689828A83E0225002E722BBFE02A0
:090C6200E32289828A83E49322D3
:100C6B00EF8DF0A4A8F0CF8CF0A428CE8DF0A42E9D
:020C7B00FE2257
:100C7D00BB010789828A83020D275005E9F8020D11
:100C8D000EBBFE05E9F8020D3089828A83020D390B
:060C9D008A838982E473E2
:10080000E5332427F8E605332278243007027827D9
:10081000E475F001120D17020C522000EB7F2ED26E
:10082000008018EF540F2490D43440D4FF30040BD0
:10083000EF24BFB41A0050032461FFE534600215B1
:10084000340537E5377002053630070D7824E47536
:10085000F001120D17EF020CFC02139C7403D20777
:100860008003E4C207F5338B248A258926E4F53416
:10087000F536F537E53460077F2012083B80F575C3
:1008800035FFC201C200C202C203C205C206C208CD
:10089000120809FF700D3007057F0012084CAF37B2
:1008A000AE3622B4255FC2D5C204120809FF24D097
:1008B000B40A00501A75F00A783430D50508B6FF2E
:1008C0000106C6A426F620D5047002D20380D924DE
:1008D000CFB41A00EF5004C2E5D204020A4CD20190
:1008E00080C6D20080C0D20280BCD2D580BAD205E8
:1008F00080B47F2012083B2002077401B534004009
:10090000F1120800FF12083B020874D208D20680D8
:1009100095120800FB120800FA120800F94A4B7001
:1009200006791D7A0B7BFF20022EE534602A7E00BB
:100930008E82758300120CCF60060EEE653570F066
:10094000C2D5EBC0E0EAC0E0E9C0E0EE120A93D005
:10095000E0F9D0E0FAD0E0FB120C52FF60AAEBC045
:10096000E0EAC0E0E9C0E012083BD0E02401F9D0A1
:10097000E03400FAD0E0FBE5350460DCD535D98001
:10098000877BFF7A0A798FD202809C791080027966
:1009900008C206C2088008D2D5790A8004790AC242
:1009A000D5E535047002F535E4FAFDFEFF120800C6
:1009B000FC7B08200113120800FD7B1030000A1296
:1009C0000800FE120800FF7B20EC3382D592D55040
:1009D00013C3E43000069FFFE49EFEE42001039D64
:1009E000FDE49CFCE4CBF8C201EC700CCFCECDCC86
:1009F000E824F8F870F38017C3EF33FFEE33FEED11
:100A000033FDEC33FCEB33FB994002FB0FD8E9EBF1
:100A1000300105F8D0E0C448B201C0E00AEC4D4E08
:100A20004F78207B0070C2EAB5350040BCC0E012B0
:100A30000A95D0F0D0E0200104C4C0E0C4B201C0E7
:100A4000F0120824D0F0D5F0EB020874120D45091D
:100A50001153098B5808E24C08DE42098F4F099761
:0F0A60004409974908F743099D550981460981C3
:100A6F00450981470B3D5008E62D08EA2E090D2B4D
:100A7F0008EE23090B200B262A08A64800000905BB
:100A8F003F3F3F00790AA2D5200314300509B91062
:100A9F00020404B9080104A2D52006025001042063
:100AAF0002689202B534005034C0E07F2030031941
:100ABF007F30A20272067205500F120AECC202C2F8
:100ACF0006C205C2087F30800F300503E9C0E0126F
:100ADF00083B300503D0E0F9D0E0B534CC30051732
:100AEF007F30B9100C12083B7F583004077F788095
:100AFF0003B9080312083B3002057F2D02083B7F24
:100B0F00202008F87F2B2006F322920280CF286E38
:100B1F00756C6C2900D2011208003001F8C20178FF
:100B2F003430D50108F60208A62D50434958120853
:100B3F00002403B405004001E4900B389312082CF5
:0D0B4F00743A12082CD20375340402098B8D
:100FA1008B318A328933AB34AA35A936120C52609F
:100FB10063AB31AA32A933120C52605F8534378595
:100FC10035388536398B3A8A3B893CAB37AA38A903
:100FD10039120C52FF6023AB3AAA3BA93C120C52C6
:100FE1006F7017042539F539E43538F53874012562
:100FF1003CF53CE4353BF53B80D1AB37AA38A93908
:10100100120C527002800D74012533F533E4353230
:10101100F532809DAB31AA32A933227B007A007967
:021021000022AB
:100CA300EF4E6012EF60010EEDBB010B89828A8368
:100CB300F0A3DFFCDEFA2289F05007F709DFFCA975
:0C0CC300F022BBFEFCF309DFFCA9F022CC
:100F21000214A7E493A3F8E493A34003F68001F22B
:100F310008DFF48029E493A3F85407240CC8C333D1
:100F4100C4540F4420C8834004F456800146F6DFA0
:100F5100E4800B010204081020408090122EE47EF0
:100F6100019360BCA3FF543F30E509541FFEE49395
:100F7100A360010ECF54C025E060A840B8E493A35C
:100F8100FAE493A3F8E493A3C8C582C8CAC583CA87
:100F9100F0A3C8C582C8CAC583CADFE9DEE780BE3F
:01126100008C
:100CCF00BB010CE58229F582E5833AF583E02250DA
:100CDF0006E92582F8E622BBFE06E92582F8E22224
:0D0CEF00E58229F582E5833AF583E493223E
:100CFC00BB010689828A83F0225002F722BBFE01D7
:020D0C00F322D0
:090D0E00E6FB08E6FA08E6F9220A
:100D1700FAE6FB0808E6F925F0F618E6CA3AF622DD
:090D2700E0FBA3E0FAA3E0F922CD
:090D3000E2FB08E2FA08E2F922F4
:0C0D3900E493FB740193FA740293F92216
:100D4500D083D082F8E4937012740193700DA3A33D
:100D550093F8740193F5828883E473740293686051
:060D6500EFA3A3A380DF51
:10139C00EFB40A07740D1213A7740A309811A899A8
:1013AC00B8130CC2983098FDA899C298B811F630B1
:0713BC0099FDC299F5992289
:00000001FF
