:080D0A00024A0000024800004B
:100F1500120D3E7F207EA1120E9C120FA6E924061B
:0C0F2500F9E43AFA12092112094180E7B0
:080D120002340000023200006F
:100D3E00120F6E120F5D7523FF75240D7525D67576
:100D4E0026FF75270D7528FF7529FF752A0C752B43
:100D5E0011752CFF752D0F752EB5752FFF75300F74
:040D6E0075318E222B
:070FA6007B007A0079232291
:100DD600EF24FE600F1460182402701A7DAA7C05A9
:100DE6007F0180067DAA7C05E4FF120D727F012239
:090DF600120FAD7F01227F0022E3
:100DFF00EF24FE600F1460182402701A7DAA7C0580
:100E0F007F0180067DAA7C05E4FF120DA47F0122DD
:090E1F00120FB17F01227F0022B5
:100C1100E4FE7F02FDFB7A0079081209477F011289
:100C21000C927F02120C927F03120C9212099A7895
:100C3100087C007D007E007F021208D07B007A00D4
:100C41007908120EF87B007A007909120EF87F00FC
:010C51002280
:030FB5007F012297
:100E9C00EF4E601A8E348F35E4F532F533C3E533FB
:0F0EAC009535E5346480F8E53264809840EF2294
:100F6E00D2AF758911D2A9758CFF758AF6D28C22F3
:100F5D0075CAD975CBFF75C834759850D2ACD2AF60
:010F6D002261
:0C0F8E00EF6004D2A48002C2A47F012204
:03000B00020F4899
:100F4800C0E0758CFF758AF60533E533700205320B
:050F5800B2A7D0E03259
:080D1A00024100000236000056
:030FB800DFFE2237
:100EDA00D3EF9400EE940040147D6E7C00ED1D70FB
:0D0EEA00011CED4C70F7EF1F70E61E80E359
:010EF70022D8
:100F3100D2A37F02120FB8C2A37F1E7E00120EDA67
:070F4100D2A37F1E020FB8CE
:100E5000E4FEFDEDC3940874809480501630A3FD29
:100E60007F08120FB8EE25E0FE30A3010E20A3FD8F
:050E70000D80E0AF065B
:010E7500225A
:10099A007E007F027D007B007A00790A12094712E5
:1009AA000F3130A303020A4630A3FD7F28120FB885
:1009BA00120E508F0C120E50A907120E50AC0712CD
:1009CA000E50AB07120E508F117F19120FB8E9FFA4
:1009DA00E50C2FFFE433FEEC7583002FFFE5833E21
:1009EA00FEEB2FFFE5833EFEE511B5070EE583B565
:1009FA000609850C0D890E8C0F8B10850D0A850F43
:100A0A000BE50D75F00A842430F538E50D75F00A0A
:100A1A0084E5F02430F539753A52753B48753C2027
:100A2A00753D20E50F75F00A842430F53EE50F7513
:100A3A00F00A84E5F02430F53F7540437B007A00E4
:020A4A00790A27
:010A4C002287
:080D2200024E0000024C00002B
:100C9200E4FEEFFD3395E0FCC364809480400BD307
:100CA200ED9407EC6480948040037F0022EF13925E
:100CB200B4EFA2E192B5A2E292B6C2A5C2B2D2B29A
:0E0CC20000C2B230A6FDD2A5AE80C2A5AF061C
:010CD0002201
:020FBB00200014
:0B0D2A000246000002440000014300EC
:100EF800750DFF750E0F750FBB7510017511007517
:0C0F08001232120C52EF7002FF227F0127
:010F140022BA
:060C52008B0A8A0B890CDD
:100C5800E4F513120EBBE513C39510502AAB0AAA8C
:100C68000BA90C120E28AE11AF127C007D6412097C
:100C78000F120E9CAB0DAA0EA90F120E76EF600391
:090C88007F0122051380CF7F00DB
:010C91002240
:100EBB00E4FFEFC3944674809480500F74002FF5B9
:0E0ECB0082E43400F583E4F00F80E7E4F543A1
:010ED90022F6
:100E28008B148A158916120EBBAB14AA15A91612B3
:100E380008F660130516E5167002051514F9120870
:080E4800F6FF120F9A80E2226E
:0C0F9A00C2AC8F993099FDC299D2AC22F4
:100E76008B148A158916C2AC8B1A8A1B891C7B01B6
:100E86007A007900120AD9E94A4B6005D2AC7F0193
:060E960022D2AC7F002215
:03002300020CD1FB
:100CD100C0E0C083C082C0D0309820C29874002583
:100CE10043F582E43400F583E599F00543C3E54318
:100CF1009446748094804003754300309902C299F0
:090D0100D0D0D082D083D0E032C2
:100F7E00050109080A02060450109080A020604066
:080D3500025200000250000010
:060D72008F088C098D0AB8
:100D780085090B850A0CE4F50DF50EC3E50E950AF9
:100D8800E50D95095013050EE50E7002050D7D0160
:0C0D98007C00AF08120BB680E2020FAD29
:060DA4008F088C098D0A86
:100DAA0085090B850A0CE4F50DF50EC3E50E950AC7
:100DBA00E50D95095013050EE50E7002050D7D012E
:0C0DCA007C00AF08120B5B80E2020FB14E
:040FAD00E4F59022B5
:040FB100E4F59022B1
:040B5B008C0F8D105E
:100B5F00E4F511EF6028E4F511C3E51194087480F2
:100B6F0094805042E511900F8693F590AE0FAF1021
:100B7F007C007D6412090F120E9C051180DB75112C
:100B8F0007D3E511940074809480401AE511900FFB
:100B9F008693F590AE0FAF107C007D6412090F1293
:060BAF000E9C151180DB15
:010BB500221D
:040BB6008C0F8D1003
:100BBA00E4F511EF6028E4F511C3E5119408748097
:100BCA0094805042E511900F7E93F590AE0FAF10CE
:100BDA007C007D6412090F120E9C051180DB7511D1
:100BEA0007D3E511940074809480401AE511900FA0
:100BFA007E93F590AE0FAF107C007D6412090F1240
:060C0A000E9C151180DBB9
:010C100022C1
:03000000020A4DA4
:0C0A4D00787FE4F6D8FD758153020A940E
:10080000E709F608DFFA8046E709F208DFFA803EDA
:1008100088828C83E709F0A3DFFA8032E309F608C7
:10082000DFFA8078E309F208DFFA807088828C832F
:10083000E309F0A3DFFA806489828A83E0A3F608E3
:10084000DFFA805889828A83E0A3F208DFFA804CBD
:1008500080D280FA80C680D4806980F28033801094
:1008600080A680EA809A80A880DA80E280CA8033FD
:1008700089828A83ECFAE493A3C8C582C8CCC58375
:10088000CCF0A3C8C582C8CCC583CCDFE9DEE78045
:100890000D89828A83E493A3F608DFF9ECFAA9F0C4
:1008A000EDFB2289828A83ECFAE0A3C8C582C8CC1A
:1008B000C583CCF0A3C8C582C8CCC583CCDFEADE33
:1008C000E880DB89828A83E493A3F208DFF980CC95
:1008D00088F0EF60010E4E60C388F0ED2402B4048E
:1008E0000050B9F582EB2402B4040050AF23234535
:0608F00082239008507302
:1008F600BB010689828A83E0225002E722BBFE0200
:09090600E32289828A83E4932232
:10090F00EF8DF0A4A8F0CF8CF0A428CE8DF0A42EFC
:02091F00FE22B6
:10092100BB010789828A8302097C5005E9F8020923
:1009310073BBFE05E9F802098589828A8302098E63
:060941008A838982E47341
:100AD9008B178A188919AB1AAA1BA91C1208F66068
:100AE90063AB17AA18A9191208F6605F851A1D8544
:100AF9001B1E851C1F8B208A218922AB1DAA1EA9BA
:100B09001F1208F6FF6023AB20AA21A9221208F6BA
:100B19006F701704251FF51FE4351EF51E74012596
:100B290022F522E43521F52180D1AB1DAA1EA91F8A
:100B39001208F67002800D74012519F519E43518AB
:100B4900F518809DAB17AA18A919227B007A00799C
:020B5900002278
:10094700EF4E6012EF60010EEDBB010B89828A83C7
:10095700F0A3DFFCDEFA2289F05007F709DFFCA9D4
:0C096700F022BBFEFCF309DFFCA9F0222B
:100A5900020F15E493A3F8E493A34003F68001F28F
:100A690008DFF48029E493A3F85407240CC8C3339E
:100A7900C4540F4420C8834004F456800146F6DF6D
:100A8900E4800B0102040810204080900D0AE47EE6
:100A9900019360BCA3FF543F30E509541FFEE49362
:100AA900A360010ECF54C025E060A840B8E493A329
:100AB900FAE493A3F8E493A3C8C582C8CAC583CA54
:100AC900F0A3C8C582C8CAC583CADFE9DEE780BE0C
:010D3D0000B5
:09097300E6FB08E6FA08E6F922A9
:09097C00E0FBA3E0FAA3E0F9227C
:09098500E2FB08E2FA08E2F922A3
:0C098E00E493FB740193FA740293F922C5
:00000001FF
