:080C0400024A00000248000052
:100D5000120C30120DD6E92406F9E43AFA12082BE7
:050D600012084B80FEAB
:050DDD00746573740051
:080C0C0002320000023000007A
:100C3000120D9E120D8D7524FF75250C75265B75A2
:100C400027FF75280C752984752AFF752B0D752CC7
:0B0C500039752DFF752E0D752FBE228B
:070DD6007B007A0079242262
:100C5B00EF24FE600F1460182402701A7DAA7C0525
:100C6B007F0180067DAA7C05E4FF120B6F7F0122BA
:090C7B00120DE27F01227F00222C
:100C8400EF24FE600F1460182402701A7DAA7C05FC
:100C94007F0180067DAA7C05E4FF120BA17F01225F
:090CA400120DE67F01227F0022FF
:100D3900750800750900750A00E4FF120A688B0836
:060D49008A09890A7F00FF
:010D4F002281
:0C0DBE007BFF7A0D79DD120AB47F012260
:100CFB00EF4E601A8E328F33E4F530F531C3E531A8
:0F0D0B009533E5326480F8E53064809840EF223C
:100D9E00D2AF758911D2A9758CFF758AF6D28C22C5
:100D8D0075CAD975CBFF75C834759850D2ACD2AF32
:010D9D002233
:03000B00020D7A69
:100D7A00C0E0758CFF758AF60531E53170020530E1
:030D8A00D0E03284
:080C140002410000023E000055
:100A6800EFFD3395E0FCC364809480400BD3ED9494
:100A780007EC6480948040077B007A00790022E4C8
:100A8800F540EF1392B4EFA2E192B5A2E292B6C29A
:100A9800A5C2B2D2B200C2B230A6FDD2A5858040AE
:0C0AA800C2A5120CAD7B007A007934224C
:100CAD00EFFD3395E0FCC364809480401AD3ED943E
:100CBD0007EC64809480500F7E007F0A7D007B00DE
:080CCD007A007934120851226B
:100D65004154004F4B0041542B4350494E3F0052D4
:050D7500454144590056
:0B0C1C000246000002440000014300FB
:060AB4008B088A09890A83
:100ABA00750EFF750F0D75106875110375120075A7
:100ACA0013327BFF7A0D7965120AFDEF7002FF225D
:100ADA00750EFF750F0D751074751102751200757C
:100AEA0013327BFF7A0D796B120AFDEF7002FF2237
:020AFA007F017A
:010AFC0022D7
:060AFD008B0B8A0C890D31
:100B0300E4F514120D1AE514C395115023AB0BAA87
:100B13000CA90D120BD3AF13AE12120CFBAB0EAA22
:100B23000FA910120CD5EF60037F0122051480D6A4
:020B33007F0041
:010B3500229D
:100D1A00E4FFEFC3944674809480500F74002FF55B
:0E0D2A0082E43400F583E4F00F80E7E4F54343
:010D38002298
:100BD3008B158A168917120D1AAB15AA16A91712A7
:100BE300080060130517E5177002051614F91208BB
:100BF30000FF120DCA80E27F0D120DCA7F0A020D9B
:010C0300CA26
:0C0DCA00C2AC8F993099FDC299D2AC22C6
:100CD5008B158A168917C2AC8B1B8A1C891D7B0153
:100CE5007A007900120930E94A4B6005D2AC7F01E0
:060CF50022D2AC7F0022B8
:03002300020B3697
:100B3600C0E0C083C082C0D0309820C2987400251F
:100B460043F582E43400F583E599F00543C3E543B4
:100B56009446748094804003754300309902C2998C
:090B6600D0D0D082D083D0E0325F
:100DAE00050109080A02060450109080A020604038
:080C2700024E0000024C000027
:060B6F008F088C098D0ABD
:100B750085090B850A0CE4F50DF50EC3E50E950AFE
:100B8500E50D95095013050EE50E7002050D7D0165
:0C0B95007C00AF08120A0D80E2020DE2A5
:060BA1008F088C098D0A8B
:100BA70085090B850A0CE4F50DF50EC3E50E950ACC
:100BB700E50D95095013050EE50E7002050D7D0133
:0C0BC7007C00AF081209B280E2020DE6CB
:040DE200E4F5902282
:040DE600E4F590227E
:0409B2008C0F8D1009
:1009B600E4F511EF6028E4F511C3E511940874809D
:1009C60094805042E511900DB693F590AE0FAF109E
:1009D6007C007D64120819120CFB051180DB751171
:1009E60007D3E511940074809480401AE511900DA8
:1009F600B693F590AE0FAF107C007D641208191205
:060A06000CFB151180DB62
:010A0C0022C7
:040A0D008C0F8D10AD
:100A1100E4F511EF6028E4F511C3E5119408748041
:100A210094805042E511900DAE93F590AE0FAF104A
:100A31007C007D64120819120CFB051180DB751115
:100A410007D3E511940074809480401AE511900D4C
:100A5100AE93F590AE0FAF107C007D6412081912B1
:060A61000CFB151180DB07
:010A6700226C
:030000000208A44F
:0C08A400787FE4F6D8FD75814F0208EB68
:10080000BB010689828A83E0225002E722BBFE02F6
:09081000E32289828A83E4932229
:10081900EF8DF0A4A8F0CF8CF0A428CE8DF0A42EF3
:02082900FE22AD
:10082B00BB010789828A830208865005E9F8020812
:10083B007DBBFE05E9F802088F89828A830208983E
:06084B008A838982E47338
:100930008B188A19891AAB1BAA1CA91D1208006002
:1009400063AB18AA19A91A120800605F851B1E85DF
:100950001C1F851D208B218A228923AB1EAA1FA95B
:1009600020120800FF6023AB21AA22A9231208004D
:100970006F7017042520F520E4351FF51F7401253D
:1009800023F523E43522F52280D1AB1EAA1FA9202E
:100990001208007002800D7401251AF51AE4351949
:1009A000F519809DAB18AA19A91A227B007A007943
:0209B000002223
:10085100EF4E6012EF60010EEDBB010B89828A83BE
:10086100F0A3DFFCDEFA2289F05007F709DFFCA9CB
:0C087100F022BBFEFCF309DFFCA9F02222
:1008B000020D50E493A3F8E493A34003F68001F201
:1008C00008DFF48029E493A3F85407240CC8C33349
:1008D000C4540F4420C8834004F456800146F6DF18
:1008E000E4800B0102040810204080900C04E47E98
:1008F000019360BCA3FF543F30E509541FFEE4930D
:10090000A360010ECF54C025E060A840B8E493A3D3
:10091000FAE493A3F8E493A3C8C582C8CAC583CAFE
:10092000F0A3C8C582C8CAC583CADFE9DEE780BEB6
:010C2F0000C4
:09087D00E6FB08E6FA08E6F922A0
:09088600E0FBA3E0FAA3E0F92273
:09088F00E2FB08E2FA08E2F9229A
:0C089800E493FB740193FA740293F922BC
:00000001FF
