:080FF9000218000002160000BE
:1012BD0074FFF522F523E4F5241211B37F207E4E41
:1012CD001214A97FF47E011214A912153EE9240609
:0C12DD00F9E43AFA12059B1205E180E7E3
:1014A900D3EF9400EE9400400DE4FD0DBD1BFCEF5D
:0614B9001F70ED1E80EA29
:0114BF00220A
:100E99003930393039300D0A00383038300D0A0010
:100EA90066726F6D20536D61727420636C6F746824
:100EB9006573204D6573736167653A204C6967688E
:100EC900743A25782C5261696E3A25782C57696EE7
:100ED900643A25782C54656D706572617475726514
:100EE9003A25782C48756D69646974793A25780DC5
:0A0EF9000A00050109080A020604B8
:101001000258000002550000015700025FFFFF0176
:02101100450197
:1011B300E4F5571213AF1214907546FF7547137574
:1011C30048137549FF754A12754B21754CFF754DD0
:1011D3000A754EA9754FFF75500F7551037552FF70
:0711E3007553157554272216
:07153E007B007A00794622D0
:10131300EF24FE600F1460182402701A7DC87C004D
:10132300E4FF80067DC87C007F0112128B7F0122BF
:091333001215457F01227F002202
:101221008F257BFF7A0E79991213D3E52524FE6071
:101231000F1460182402701A7DBC7C027F018006A5
:101241007DBC7C02E4FF12103D7F01221215497F13
:0512510001227F0022D4
:100AA9007E007F057D007B007A00795A1205E77F79
:100AB900011211EAAC07E41201D6E4FBFA79C8780D
:100AC90042120026E4FBFA797F784312012F1202C1
:100AD9000A8F5A7F021211EAAC07E41201D6E4FB2D
:100AE900FA79C87842120026E4FBFA797F78431232
:100AF900012F12020A8F5D7F031211EAAC07E4127B
:100B090001D6E4FBFA79C87842120026E4FBFA79A7
:100B19007F784312012F12020A8F5EC28C120E26B1
:100B2900D28C12154D8F5C1215508F5B752AFF758B
:100B39002B0E752CA9752D00855A2E752F00855DF4
:100B490030753100855E32753300855C347535004A
:100B59008F367B017A0079001206967B017A00793B
:100B6900001213D3C2AF7557011213AFD2AF120BD4
:0D0B790087C2AFE4F5571213AFD2AF7F0172
:010B8600224C
:0412E9008C658D661D
:1012ED00E4F567EF6010E4F5671211050567E56732
:1012FD00C3940840F4227567071211051567E56759
:05130D00D3940050F430
:0113120022B8
:100B8700E55AC3944F40047E0180027E00AF06EF12
:100B97007045E55DD3941950047E0180027E00AF55
:100BA70006EF7033E55EC3940240047E0180027E47
:100BB70000AF06EF7021E55CD3940F50047E0180EF
:100BC700027E00AF06EF700FE55BC3946440047EBE
:100BD7000180027E00AF06EF603DE545B40104E405
:100BE700FEFF228548828547837F021205E58554EB
:100BF700828553837F011205E5854B82854A837F72
:100C0700021205E5855482855383E4FF1205E51238
:100C17000F037545018039E5457003FEFF228554B2
:100C2700828553837F011205E5854B82854A837F41
:100C3700011205E5855482855383E4FF1205E58596
:100C470048828547837F011205E5120F03E4F545C6
:040C57007E007F019B
:010C5B002276
:100F0300E4F525F526FE7F64FD7B017A0079641202
:100F130005E7752AFF752B0E752CA9752D00855ACB
:100F23002E752F00855D30753100855E3275330077
:100F3300855C34753500855B367B017A00796412F4
:100F43000696E526640A452560167B017A007964D6
:100F5300120C5CEF700A0526E52670E6052580E293
:020F63007F010C
:010F65002269
:0C110500E567900EFB93F590AF66AE65B9
:10111100AD07E557700FEDD394004023E4FC0CBC00
:101121001BFC1D80F18E588F59E4F555F556C3E52A
:0F113100569559E5586480F8E55564809840EF6D
:01114000228C
:1013AF00E5577010D2AF438901D2A9758CFF758AAA
:1013BF00F6D28C22D2AF438901D2A9758CFC758AE3
:0413CF0018D28C2282
:1014900053877F75985053890F438920758BFD754D
:0914A0008DFDC2ABD28ED2AC224C
:0C152700EF6004C2A28002D2A27F012269
:03000B00021417C5
:10141700C0E0E557700A758CFF758AF6B2A7800E93
:10142700758CFC758A180556E55670020555D0E08F
:011437003282
:08101300020F0000020B0000B7
:100E2600E4F508F5097F207E4E1214C0C2A37FB4F4
:100E36007E001214C0D2A312151A12151A12151A10
:100E460012151AD2A320A34A750A0220A307AF0AD5
:100E5600050AEF70F6750A0230A307AF0A050AEF16
:100E660070F6120FB0850E27120FB0850E28120FDE
:100E7600B0850E25120FB0850E26120FB0D2A3E54F
:100E860025252625272528F50DB50E06852708854F
:020E960025092C
:010E98002237
:03154D00AF0922C1
:03155000AF0822BF
:100FB000E4F529750A0220A307AF0A050AEF70F6C7
:100FC00012151A12151A12151AE4F50D30A303752D
:100FD0000D01750A0230A307AF0A050AEF70F6E5A6
:100FE0000A64016013E50E25E0F50EE50D420E05DD
:080FF00029E529C3940840BB68
:010FF80022D6
:1014C000D3EF9400EE9400400DE4FD0DBD1BFCEF46
:0614D0001F70ED1E80EA12
:0114D60022F3
:0C151A00152A152A152A152A152A152A4B
:0115260022A2
:07000E00C2AF8CE3EDF5E445
:0C001500C2AF53E71843E70143E7802225
:0B15330053E77FE4F5E5F5E6D2AF22B8
:0800030075E64675E6B900221E
:04147600AD07AC060C
:10147A00E4FF12000E53E5F843E501120003AFE260
:05148A00121533D2AF82
:01148F00223A
:10143800AB07AA06C2AF8AE3EBF5E412001553E541
:0F144800F843E5028DE2120003121533D2AF22F2
:1014D700AD07AC0612000E53E5F843E5031200030F
:0314E700021533B8
:08101B00021C0000021A000093
:1011EA00E4FEC3EF648094804008D3EF6480948760
:1011FA0040037F0022EF1392B4EFA2E192B5A2E27C
:10120A0092B6C2A5C2B2D2B200C2B230A6FDD2A56F
:06121A00AE80C2A5AF0684
:0112200022AB
:100F660041542B434D47533D2231373337373334C2
:100F760039383530220041542B43504D533D2253CE
:100F86004D222C224D45222C22534D22004F4B0040
:100F960041542B434D47463D310041542B43534367
:0A0FA600533D2247534D22003E0048
:10102300021400000212000001110043010EFF0F21
:011033006656
:060C5C008B278A2889297C
:100C6200752A1AE4F52B752FFF75300F75319375C0
:100C72003203F5337534C87BFF7A0F797C12114148
:100C8200EF7002FF22752FFF75300F7531937532A9
:100C9200037533007534647BFF7A0F799612114124
:100CA200EF7002FF22752FFF75300F753193753289
:100CB200037533007534647BFF7A0F79A0121141FA
:100CC200EF7002FF22752FFF75300F7531AE75324E
:100CD2000375330075346490010EE0FBA3E0FAA3C0
:100CE200E0F9121141EF7002FF22AB27AA28A929CD
:100CF200121457752FFF75300F75319375320175C8
:100D020033017534F47B007A00792A12117AEF707C
:050D120002FF227F0139
:010D170022B9
:101457008B2C8A2D892EAB2CAA2DA92E120525603F
:0F1467000D052EE52E7002052D1214EA80E822E5
:061141008B2C8A2D892E83
:10114700E4F53512150CE535C395325023AB2CAABF
:101157002DA92E121363AF34AE33121111AB2FAA80
:1011670030A931121389EF60037F0122053580D63C
:021177007F00F7
:011179002253
:0D150C007F469000C8E4F0A3DFFCE4F51179
:0115190022AF
:101363008B368A37893812150CAB36AA37A938124F
:101373000525600D0538E538700205371214EA803B
:06138300E87F0D0214F0EA
:0614EA0014F9120525FFB4
:0C14F000C2AC8F993099FDC299D2AC2299
:101389008B368A378938C2AC8B3C8A3D893E7B01D2
:101399007A0079C8120DA4E94A4B6005D2AC7F01E5
:0613A90022D2AC7F0022FD
:06117A008B2C8A2D892E4A
:1011800012150CE4F535E535C395325023AB2CAA86
:101190002DA92E1213D3AF34AE33121111AB2FAAD7
:1011A00030A931121389EF60037F0122053580D603
:0211B0007F00BE
:0111B200221A
:1013D3008B368A37893812150CAB36AA37A93812DF
:1013E3000525600D0538E538700205371214EA80CB
:0213F300E822EE
:0300230002125670
:10125600C0E0C083C082C0D030981CC29874C82534
:1012660011F582E43400F583E599F00511E511C323
:1012760094464003751100309902C299D0D0D082AD
:05128600D083D0E0322E
:1013F5003730373037300D0A003630363036300D5D
:101405000A00050109080A02060450109080A02070
:02141500604035
:081034000263000002610000EC
:06128B008F258C268D2743
:10129100852628852729E4F52AF52BC3E52B9527F3
:1012A100E52A95265013052BE52B7002052A7D05AD
:0C12B1007C00AF251210C380E20215453E
:06103D008F268C278D2890
:1010430085272985282AE4F52BF52C7BFF7A13794C
:10105300F51213D3C3E52C9528E52B9527501305DB
:101063002CE52C7002052B7D057C00AF2612108128
:0E10730080E27BFF7A1379FE1213D302154937
:04154500E4F5902217
:04154900E4F5902213
:041081008C2D8D2EF7
:10108500E4F52FEF601CE4F52FE52F90140F93F591
:1010950090AF2EAE2D121111052FE52FC3940840E8
:1010A500E822752F07E52F90140F93F590AF2EAE1C
:0D10B5002D121111152FE52FD3940050E8D6
:0110C200220B
:0410C3008C2C8D2DB7
:1010C700E4F52EEF601CE4F52EE52E90140793F55A
:1010D70090AF2DAE2C121111052EE52EC3940840AA
:1010E700E822752E07E52E90140793F590AF2DAEE5
:0D10F7002C121111152EE52ED3940050E897
:0111040022C8
:0F14FC00EFD394004009E4FE0EBE1BFC1F80F1ED
:01150B0022BD
:10002600EC4D6011E8497017ED33EC3304600DE4D4
:10003600FCFFFEFD22E933E8330470F80202761273
:10004600024158046009E4CC248150062850090274
:10005600028028400302027DC0E0EB4A7044B9806A
:1000660006D0E0FB02026CEF4E701CBD8008EBFF71
:10007600EAFEE9FD80EBE98DF0A4FEE5F002010F52
:10008600E9CDF9EAFEEBFFEF89F0A4FCE5F0CE89B5
:10009600F0A42EFFE435F0CD89F0A42DFEE435F072
:1000A6008067EF4E7005BD80D780C3EF8BF0A4ACA0
:1000B600F0EE8BF0A42CFCE435F0F8EF8AF0A42CDB
:1000C600E5F038FCE433CB8DF0A42CFCE5F03BF8EE
:1000D600EE8AF0A42CFCE5F038F8E433CF89F0A4DE
:1000E6002CFCE5F038CF3400CE89F0A42FFFE5F0E4
:1000F6003EFEE433C98DF0A42EFEE5F039CD8AF03C
:10010600A42FFFE5F03EFEE43DFD33D0E0FB5007B3
:100116000BBB000F020280EC2CFCEF33FFEE33FE2C
:06012600ED33FD0202585A
:10012C00020280EC5D046005E8590470030202765B
:10013C00120241580460F6EC4860F2EC7004FDFECB
:10014C00FF22C860DB2481C85009C39860025006A6
:10015C0002027D9850CAF582E9294B4A7005AB82A0
:10016C0002026C75F0007C1A7880C3EF9BEE9AED5E
:10017C0099400DC3EF9BFFEE9AFEED99FDE842F01E
:10018C00DC23ACF0D0E0FFD0E0FED0E0FDAB822071
:10019C00E7101BEB60BAEC2CFCEF33FFEE33FEEDFB
:1001AC0033FD020258E803F830E705C0F075F000A3
:1001BC00EF2FFFEE33FEED33FD40B830E7C280AADF
:1001CC0075F020800E75F010800575F0087D007EAE
:1001DC00007F003392D530D50312057DEC334010EF
:1001EC00EF33FFEE33FEED33FDEC33FCD5F0ED22B7
:0E01FC00E5F0247EA2D513CC92E7CDCEFF22F3
:10020A00EDD2E7CD33EC3392D524814006E4FFFEEC
:10021A00FDFC22FCE4CFCECDCC24E0501174FF804B
:10022A00EDC3CC13CCCD13CDCE13CECF13CF0470E8
:07023A00F030D5DE02057D66
:10063A00E53E242AF8E6053E227827300702782A82
:10064A00E475F00112058B0205252000EB7F2ED2FE
:10065A00008018EF540F2490D43440D4FF30040B98
:10066A00EF24BFB41A0050032461FFE53F6002156E
:10067A003F0542E5427002054130070D7827E475CF
:10068A00F00112058BEF02056B02133C7403D207CB
:10069A008003E4C207F53E8B278A288929E4F53FBF
:1006AA00F541F542E53F60077F2012067580F57532
:1006BA0040FFC201C200C202C203C205C206C2088A
:1006CA00120643FF700D3007057F00120686AF42FF
:1006DA00AE4122B4255FC2D5C204120643FF24D01C
:1006EA00B40A00501A75F00A783F30D50508B6FFEB
:1006FA000106C6A426F620D5047002D20380D924A6
:10070A00CFB41A00EF5004C2E5D204020973D20131
:10071A0080C6D20080C0D20280BCD2D580BAD205AF
:10072A0080B47F201206752002077401B53F00408D
:10073A00F112063AFF1206750206AED208D20680F8
:10074A009512063AFB12063AFA12063AF94A4B7021
:10075A0006796A7A0A7BFF20022EE53F602A7E002C
:10076A008E8275830012053E60060EEE654070F0BB
:10077A00C2D5EBC0E0EAC0E0E9C0E0EE1209D3D08E
:10078A00E0F9D0E0FAD0E0FB120525FF60AAEBC041
:10079A00E0EAC0E0E9C0E0120675D0E02401F9D031
:1007AA00E03400FAD0E0FBE5400460DCD540D980B3
:1007BA0087D20280A21209B660F7E54070010412DE
:1007CA00028BA940600DE540600914F540120A5DEC
:1007DA00EF60F3EA30E702F404C3995077EAF425AC
:1007EA00400430E701E404F540800D1209B660C107
:1007FA00EA0540254012028BEA783DF630E701E42B
:10080A00254004D54004200501141209D3E4C0E0B0
:10081A00120A5D783DE6601320E70714F612065DBA
:10082A00802204F6D0E014C0E07F0012065DE540A5
:10083A0060071206541540800B300503120654D087
:10084A00E00206AED0E00480C51209B660A0E54019
:10085A000412028B783DEAF6E540200502600104A5
:05086A0024041209D373
:10086F0074FF04C0E0120A5D12065DE54020050228
:10087F006003120654D0E0B540E87F451206677852
:10088F003DE67F2B30E7047F2DF404C0E0120675A0
:10089F00D0E075F00A84C0F012065ED0E012065E5A
:1008AF000206AE791080027908C206C2088008D20B
:1008BF00D5790A8004790AC2D5E540047002F54063
:1008CF00E4FAFDFEFF12063AFC7B08200113120624
:1008DF003AFD7B1030000A12063AFE12063AFF7BF1
:1008EF0020EC3382D592D55013C3E43000069FFF1E
:1008FF00E49EFEE42001039DFDE49CFCE4CBF8C2E2
:10090F0001EC700CCFCECDCCE824F8F870F3801743
:10091F00C3EF33FFEE33FEED33FDEC33FCEB33FB74
:10092F00994002FB0FD8E9EB300105F8D0E0C4483D
:10093F00B201C0E00AEC4D4E4F78207B0070C2EA46
:10094F00B5400040BCC0E01209D5D0F0D0E0200186
:10095F0004C4C0E0C4B201C0F012065ED0F0D5F0FE
:10096F00EB0206AE1205BB074B5308B258071C4CDF
:10097F0007184208B64F08BE4408BE49073143085E
:10098F00C45507F54608534507BF470A8A50072045
:10099F002D07242E07472B0728230745200A732AE4
:1009AF0006E0480000073FE540B4FF03754006121C
:1009BF00063AFC12063AFD12063AFE12063AFF7884
:1009CF00360202BA790AA2D5200314300509B910EC
:1009DF00020404B9080104A2D52006025001042024
:1009EF0002689202B53F005034C0E07F20300319F7
:1009FF007F30A20272067205500F120A2CC202C279
:100A0F0006C205C2087F30800F300503E9C0E0122F
:100A1F000675300503D0E0F9D0E0B53FCC300517AF
:100A2F007F30B9100C1206757F583004077F78801D
:100A3F0003B908031206753002057F2D0206757F74
:100A4F00202008F87F2B2006F322920280CF7F0010
:100A5F00B4070050052436F8E6FF22286E756C6C3B
:100A6F002900D20112063A3001F8C201783F30D581
:100A7F000108F60206E02D5043495812063A2403A6
:100A8F00B405004001E4900A8593120666743A1289
:0A0A9F000666D203753F040208B298
:10024100E9D2E7C933E833F892D5EDD2E7CD33EC03
:0702510033FC5002B2D5227C
:10025800EC30E7100FBF000C0EBE00080DBD000407
:100268000BEB6014A2D5EB13FCED92E7FD2274FFB3
:10027800FCFDFEFF22E480F8A2D574FF13FC7D800C
:03028800E480EF20
:10028B00F920E72824F950037907E4F42402FB183A
:10029B00DBFDE624FB5014E9600DE4F618E604F6EA
:0F02AB00B40A08E4F6D9F57401F60A22C2D52286
:1002BA00ED33EC3392D5FA602AB4FF33EDC2E77B13
:1002CA00FF60067A0279DFE4227A0279E820D5040F
:1002DA007A0279E3224E614E002B494E46002D499F
:1002EA004E4600E47A08F608DAFC7B00740722E836
:1002FA00C0E0ECC0E0EDC0E0EEC0E0EFC0E0EA75BF
:10030A00F010A4CAABF075F04DA42BFBE435F0FC59
:10031A00EA2410FAEB34C5FBEC34D9FCEDC2E7FF52
:10032A0075F056A4F42411C5F0F434C58FF0A42A4C
:10033A00E5F03BE43CF620E7141204E5D0E0FFD0F8
:10034A00E0FED0E0FDD0E0FC12012F8014F404128C
:10035A0004E5D0E0FFD0E0FED0E0FDD0E0FC1200E2
:10036A0026D0E0F8E6FAEDD2E7CD33EC332482FB6F
:10037A00E4C3CF33CFCE33CECD33CD33DBF37B07DC
:10038A0075F00A846004F6081B0AE5F0F6088FF097
:10039A00740AA4FFACF08EF0740AA42CFEACF050E0
:1003AA00010C8DF0740AA42CFDE435F0F608DBDEAE
:0303BA00740722A3
:1003BD00020276E86480F8E933E83360110460F0F6
:1003CD00ED33EC337009E8FCE9FDEAFEEBFF2204A6
:1003DD0060DED3EB9FEA9EE99DE8C2E78CF0C2F7A1
:1003ED0095F0400CE8CCF8E9CDF9EACEFAEBCFFB6D
:1003FD0012024185D0F05804700320D5B3E8047083
:10040D00075002B2D502028092D5EC0460F7E4CC1D
:10041D00C0E0C398F8603B94186008400DD0E0FB35
:10042D00020258E4FBFAC9FC8028E830E406E4C96E
:10043D00FBE4CAFCE830E305E4C9CACBFCE8540789
:10044D006010F8C3E913F9EA13FAEB13FBEC13FC94
:10045D00D8F130F52FC3E49CFCEF9BFFEE9AFEED37
:10046D0099FDD0E0FBEF4E4D4C701222DB030202E2
:10047D007DEC2CFCEF33FFEE33FEED33FDED30E77D
:10048D00EB020258EF2BFFEE3AFEED39FDD0E0FB0B
:10049D0050130BBB0003020280ED13FDEE13FEEFB4
:0804AD0013FFEC13FC020258DE
:1004B5003F8000004120000042C80000447A00004F
:1004C500461C400047C35000497424004B189680D1
:1004D5004CBEBC205A0E1BCA6753C21C749DC5AEC8
:1004E500FB60065407601C2323120513EB54386088
:1004F500091204FF12050E120026ECF8EDF9EEFACA
:10050500EFCB22EB12050E80F1543803241C900426
:10051500B5FE93FC0EEE93FD0EEE930ECE93FF22E9
:03000000020D18D6
:0C0D1800787FE4F6D8FD758167020D5F5E
:10052500BB010689828A83E0225002E722BBFE02D4
:09053500E32289828A83E4932207
:10053E00BB010CE58229F582E5833AF583E0225072
:10054E0006E92582F8E622BBFE06E92582F8E222BC
:0D055E00E58229F582E5833AF583E49322D6
:10056B00BB010689828A83F0225002F722BBFE016F
:02057B00F32269
:0E057D00C3E49FFFE49EFEE49DFDE49CFC228F
:10058B00FAE6FB0808E6F925F0F618E6CA3AF62271
:10059B00BB010789828A8302061C5005E9F8020613
:1005AB0013BBFE05E9F802062589828A8302062E13
:1005BB00D083D082F8E4937012740193700DA3A3CF
:1005CB0093F8740193F5828883E4737402936860E3
:0605DB00EFA3A3A380DFE3
:0605E1008A838982E473A5
:10133C00EFB40A07740D121347740A309811A89968
:10134C00B8130CC2983098FDA899C298B811F63011
:07135C0099FDC299F59922E9
:100DA4008B398A3A893BAB3CAA3DA93E12052560A2
:100DB40063AB39AA3AA93B120525605F853C3F85A0
:100DC4003D40853E418B428A438944AB3FAA40A9BA
:100DD40041120525FF6023AB42AA43A9441205250D
:100DE4006F7017042541F541E43540F54074012541
:100DF40044F544E43543F54380D1AB3FAA40A941CF
:100E04001205257002800D7401253BF53BE4353A4B
:100E1400F53A809DAB39AA3AA93B227B007A007946
:020E24000022AA
:1005E700EF4E6012EF60010EEDBB010B89828A832B
:1005F700F0A3DFFCDEFA2289F05007F709DFFCA938
:0C060700F022BBFEFCF309DFFCA9F0228E
:100D24000212BDE493A3F8E493A34003F68001F216
:100D340008DFF48029E493A3F85407240CC8C333D0
:100D4400C4540F4420C8834004F456800146F6DF9F
:100D5400E4800B0102040810204080900FF9E47E27
:100D6400019360BCA3FF543F30E509541FFEE49394
:100D7400A360010ECF54C025E060A840B8E493A35B
:100D8400FAE493A3F8E493A3C8C582C8CAC583CA86
:100D9400F0A3C8C582C8CAC583CADFE9DEE780BE3E
:01103C0000B3
:09061300E6FB08E6FA08E6F9220C
:09061C00E0FBA3E0FAA3E0F922DF
:09062500E2FB08E2FA08E2F92206
:0C062E00E493FB740193FA740293F92228
:00000001FF
