:080A4800021E0000021C000068
:100A7700120A61120ABE12092689828A837F02122C
:040A8700094A80FE9A
:080A500002100000020E00007C
:100A6100120A9E7508FF750909750AD7750BFF757E
:060A71000C0A750D0022C5
:070ABE007B007A0079082299
:1009D700EF24FE600F1460182402701A7DAA7C05AC
:1009E7007F0180067DAA7C05E4FF1209737F01223F
:0909F700120AC57F01227F0022D3
:100A0000EF24FE600F1460182402701A7DAA7C0582
:100A10007F0180067DAA7C05E4FF1209A57F0122E3
:090A2000120AC97F01227F0022A5
:100A2900EF4E601A8E108F11E4F50EF50FC3E50F26
:0F0A39009511E5106480F8E50E64809840EF2277
:100A9E00D2AF758911D2A9758CFC758A18D28C22A9
:03000B00020A8B5B
:100A8B00C0E0758CFC758A18050FE50F7002050E1A
:030A9B00D0E03276
:100AAE00050109080A02060450109080A02060403B
:080A5800022200000220000050
:060973008F128C138D149D
:10097900851315851416E4F517F518C3E5189514AC
:10098900E517951350130518E518700205177D0131
:0C0999007C00AF121208D980E2020AC5EF
:0609A5008F128C138D146B
:1009AB00851315851416E4F517F518C3E51895147A
:1009BB00E517951350130518E518700205177D01FF
:0C09CB007C00AF1212088C80E2020AC906
:040AC500E4F59022A2
:040AC900E4F590229E
:04088C008C198D1A1C
:10089000E4F51BEF6021E4F51BC3E51B94087480AD
:1008A00094805034E51B900AB693F590AF1AAE19B8
:1008B000120A29051B80E2751B07D3E51B940074FF
:1008C0008094804013E51B900AB693F590AF1AAE62
:0808D00019120A29151B80E230
:0108D80022FD
:0408D9008C198D1ACF
:1008DD00E4F51BEF6021E4F51BC3E51B9408748060
:1008ED0094805034E51B900AAE93F590AF1AAE1973
:1008FD00120A29051B80E2751B07D3E51B940074B2
:10090D008094804013E51B900AAE93F590AF1AAE1C
:08091D0019120A29151B80E2E2
:0109250022AF
:03000000020800F3
:0C080000787FE4F6D8FD758123020847DC
:10092600BB010789828A830209555005E9F8020945
:100936004CBBFE05E9F802095E89828A83020967D3
:060946008A838982E4733C
:10080C00020A77E493A3F8E493A34003F68001F281
:10081C0008DFF48029E493A3F85407240CC8C333ED
:10082C00C4540F4420C8834004F456800146F6DFBC
:10083C00E4800B0102040810204080900A48E47EFA
:10084C00019360BCA3FF543F30E509541FFEE493B1
:10085C00A360010ECF54C025E060A840B8E493A378
:10086C00FAE493A3F8E493A3C8C582C8CAC583CAA3
:10087C00F0A3C8C582C8CAC583CADFE9DEE780BE5B
:010A60000095
:09094C00E6FB08E6FA08E6F922D0
:09095500E0FBA3E0FAA3E0F922A3
:09095E00E2FB08E2FA08E2F922CA
:0C096700E493FB740193FA740293F922EC
:00000001FF
