:08088A00021E0000021C000028
:0B0984001200008B4B8A4C894D7F0055
:01098F002245
:10063A00417373657274206661696C65643A2074EB
:10064A006869733D3D6E756C6C70747220286669BA
:10065A006C65202573206C696E65202564290A0063
:10066A00676C6F62616C4D616E616765725C676C25
:10067A006F62616C4D616E616765722E63004173D2
:10068A0073657274206661696C65643A207468697E
:10069A0073202866696C65202573206C696E652055
:0506AA002564290A008F
:0D08920002270000022500000322000000E4
:03099800020974DD
:10094D00E523452445226008AB22AA23A924800370
:04095D0012079322C8
:10079300E52445234522601A750BFF750C06750D7C
:1007A3006A750E00750F127BFF7A06793A12007094
:1007B30080FE7F067E00120512AA06A9077B018B25
:1007C300228A238924EA494B701A750BFF750C069C
:1007D300750D6A750E00750F147BFF7A0679881202
:0B07E300007080FEAB22AA23A9242294
:1008B300E52345244522701A750BFF750C06750D4B
:1008C3006A750E00750F197BFF7A0679881200701E
:0908D30080FEAE23AF2402036A8B
:10092300EF24FE600A146007240270067F01227F11
:0509330001227F0022FB
:10093800EF24FE600A146007240270067F01227FFC
:0509480001227F0022E6
:10090300EF4E601B8E278F28E4F525F526C3E526D9
:100913009528E5276480F8E52564809840EF222236
:10097400D2AF758911D2A9758CFC758A18D28C22D4
:03000B0002096186
:10096100C0E0758CFC758A180526E5267002052500
:03097100D0E032A1
:08000300050109080A020604C8
:08089F0002410000023F0000CD
:06082A008F298C2A8D2BA2
:10083000852A2C852B2DE4F52EF52FC3E52F952B3E
:10084000E52E952A5013052FE52F7002052E7D0504
:090850007C00AF2912072480E2AC
:01085900227C
:06085A008F308C318D325D
:10086000853133853234E4F535F536C3E5369532D6
:10087000E535953150130536E536700205357D05B1
:090880007C00AF301206AF80E2EB
:01088900224C
:040990005390F0226E
:0409940053900F224B
:040724008C378D3849
:10072800E4F539F53A74F05290EF602EE4F539F5B6
:100738003A7403253AF58274003539F583E4934217
:1007480090AF38AE37120903053AE53A7002053919
:10075800C39408E539940040D822753900753A07E2
:100768007403253AF58274003539F583E493429091
:10077800AF38AE37120903E53A153A70021539D386
:0A078800E53A9400E539940050D6DC
:010792002244
:0406AF008C3B8D3CB7
:1006B300E4F53DF53E740F5290EF6031E4F53DF5FE
:1006C3003E7403253EF5827400353DF583E493C4FF
:1006D30054F04290AF3CAE3B120903053EE53E7039
:1006E30002053DC39408E53D940040D522753D00C5
:1006F300753E077403253EF5827400353DF583E4AA
:1007030093C454F04290AF3CAE3B120903E53E154F
:100713003E7002153DD3E53E9400E53D940050D371
:0107230022B3
:030000000205AE48
:0C05AE00787FE4F6D8FD75814D0205F55C
:10000E00E517240BF8E60517227808300702780B5F
:10001E00E475F0011204DC02046E2000EB7F2ED298
:10002E00008018EF540F2490D43440D4FF30040BCA
:10003E00EF24BFB41A0050032461FFE518600215C7
:10004E0018051BE51B7002051A30070D7808E475BC
:10005E00F0011204DCEF0204B40208DC7403D207D0
:10006E008003E4C207F5178B088A09890AE4F5189C
:10007E00F51AF51BE51860077F2012004980F5750B
:10008E0019FFC201C200C202C203C205C206C208E3
:10009E00120017FF700D3007057F0012005AAF1BBC
:1000AE00AE1A22B4255FC2D5C204120017FF24D0A7
:1000BE00B40A00501A75F00A781830D50508B6FF44
:1000CE000106C6A426F620D5047002D20380D924D8
:1000DE00CFB41A00EF5004C2E5D20402025AD20184
:1000EE0080C6D20080C0D20280BCD2D580BAD205E2
:1000FE0080B47F201200492002077401B518004019
:10010E00F112000EFF120049020082D208D20680C0
:10011E009512000EFB12000EFA12000EF94A4B70E9
:10012E0006792B7A037BFF20022EE518602A7E00CB
:10013E008E8275830012048760060EEE651970F0CC
:10014E00C2D5EBC0E0EAC0E0E9C0E0EE1202A1D0F9
:10015E00E0F9D0E0FAD0E0FB12046EFF60AAEBC02B
:10016E00E0EAC0E0E9C0E0120049D0E02401F9D095
:10017E00E03400FAD0E0FBE5190460DCD519D98033
:10018E00877BFF7A02799DD202809C79108002795A
:10019E0008C206C2088008D2D5790A8004790AC23C
:1001AE00D5E519047002F519E4FAFDFEFF12000EF2
:1001BE00FC7B0820011312000EFD7B1030000A128A
:1001CE00000EFE12000EFF7B20EC3382D592D5502E
:1001DE0013C3E43000069FFFE49EFEE42001039D5E
:1001EE00FDE49CFCE4CBF8C201EC700CCFCECDCC80
:1001FE00E824F8F870F38017C3EF33FFEE33FEED0B
:10020E0033FDEC33FCEB33FB994002FB0FD8E9EBEB
:10021E00300105F8D0E0C448B201C0E00AEC4D4E02
:10022E004F78207B0070C2EAB5190040BCC0E012C6
:10023E0002A3D0F0D0E0200104C4C0E0C4B201C0DB
:10024E00F0120032D0F0D5F0EB0200821204EC0175
:10025E001F5301995800F04C00EC42019D4F01A52F
:0F026E004401A54901054301AB55018F46018F9E
:10027D0045018F47034B5000F42D00F82E011B2B29
:10028D0000FC2301192003342A00B4480000011397
:10029D003F3F3F00790AA2D5200314300509B9105C
:1002AD00020404B9080104A2D5200602500104205D
:1002BD0002689202B518005034C0E07F2030031957
:1002CD007F30A20272067205500F1202FAC202C2EC
:1002DD0006C205C2087F30800F300503E9C0E01269
:1002ED000049300503D0E0F9D0E0B518CC30051742
:1002FD007F30B9100C1200497F583004077F788089
:10030D0003B908031200493002057F2D0200497F11
:10031D00202008F87F2B2006F322920280CF286E32
:10032D00756C6C2900D20112000E3001F8C20178F3
:10033D001830D50108F60200B42D5043495812006B
:10034D000E2403B405004001E49003469312003AD5
:0D035D00743A12003AD20375180402019997
:100512008E438F447E007F008F828E83E0FCA3E0B7
:10052200FD4C7003FEFF228D828C83A3A3E0FAA30D
:10053200E0FBC39544EA95435008CEECCECFEDCF15
:1005420080D6C3EB9544F546EA9543F545C3E546A7
:100552009410E545940050198D828C83E0FBA3E052
:100562008F828E83CBF0A3EBF0ED2404FFE43CFEFC
:100572002274FC2546F54674FF3545F5458D828C7F
:1005820083A3A3F0A3E546F0ED2404FFE43CFEEFD1
:100592002546FFEE3545FE8F82F583A3A3E543F0A2
:0C05A200A3E544F0EF2404FFE43EFE2239
:10036A00EF4E700302046D900002E07002A3E07089
:10037A000302046DCDEFCDCCEECCED24FCFDEC34C4
:10038A00FFFC754700754800854882854783E0FA77
:10039A00A3E08A49F54A45496011D3E54A9FE549F0
:1003AA009E5008854947854A4880DDE54A454960A7
:1003BA004A8D828C83A3A3E0FAA3E02FFFEA3EFED4
:1003CA00EF654A7003EE65497031854A8285498333
:1003DA00A3A3E0FEA3E02404FFE43E8D828C83A362
:1003EA00A38FF01204C6854A82854983E0FFA3E001
:1003FA008D828C83CFF0A3EFF0800B8D828C83E506
:10040A0049F0A3E54AF0854882854783A3A3E0FE25
:10041A00A3E02548FFEE3547FEEF2404FFE43EFE45
:10042A00EF6D7002EE6C70308D828C83A3A3E0FEB8
:10043A00A3E02404FFE43E854882854783A3A38F73
:10044A00F01204C68D828C83E0FFA3E08548828582
:10045A004783CFF0A3EFF022854882854783ECF0EB
:04046A00A3EDF022EC
:1005BA00020984E493A3F8E493A34003F68001F2CA
:1005CA0008DFF48029E493A3F85407240CC8C33342
:1005DA00C4540F4420C8834004F456800146F6DF11
:1005EA00E4800B010204081020408090088AE47E0F
:1005FA00019360BCA3FF543F30E509541FFEE49306
:10060A00A360010ECF54C025E060A840B8E493A3CC
:10061A00FAE493A3F8E493A3C8C582C8CAC583CAF7
:10062A00F0A3C8C582C8CAC583CADFE9DEE780BEAF
:0108A7000050
:10046E00BB010689828A83E0225002E722BBFE028C
:09047E00E32289828A83E49322BF
:10048700BB010CE58229F582E5833AF583E022502A
:1004970006E92582F8E622BBFE06E92582F8E22274
:0D04A700E58229F582E5833AF583E493228E
:1004B400BB010689828A83F0225002F722BBFE0127
:0204C400F32221
:1004C600C5F0F8A3E028F0C5F0F8E58215827002C1
:0604D6001583E038F0225E
:1004DC00FAE6FB0808E6F925F0F618E6CA3AF62221
:1004EC00D083D082F8E4937012740193700DA3A39F
:1004FC0093F8740193F5828883E4737402936860B3
:06050C00EFA3A3A380DFB2
:1008DC00EFB40A07740D1208E7740A309811A8993E
:1008EC00B8130CC2983098FDA899C298B811F6307C
:0708FC0099FDC299F5992254
:0B08A8004800000000000000000000FD
:1007EE00EF4E7008FE7F01ED1D70011C900000EEB3
:1007FE00F0A3EFF0A3ECF0A3EDF0900000E0FEA369
:10080E00E0FFF5828E83E4F0A3F0ED24FCFDEC34E2
:0C081E00FF8F828E83A3A3F0A3EDF022D5
:00000001FF
