:08118B0002510000024F0000B8
:1013E5001211BF7F207EA112136C121476E9240618
:0C13F500F9E43AFA120C7D120C9D80E71E
:1012A9004C696768743A25642C5261696E3A256401
:1012B9002C57696E643A25642C54656D703A25641F
:0812C9002C48756D3A25640004
:08119300021900000217000020
:1011BF0012143E12142D7508FF750912750A577512
:1011CF000BFF750C12750D80750EFF750F0F7510D7
:1011DF002C7511FF7512117513167514FF751514F3
:0411EF0075165E22F1
:071476007B007A00790822D7
:10125700EF24FE600F1460182402701A7DAA7C0523
:101267007F0180067DAA7C05E4FF1211F37F01222E
:0912770012147D7F01227F002288
:10128000EF24FE600F1460182402701A7DAA7C05FA
:101290007F0180067DAA7C05E4FF1212257F0122D2
:0912A0001214817F01227F00225B
:100F2C007E007F027D007B007A007922120CA37E6A
:100F3C00007F057D007B007A00791B120CA37F01DA
:100F4C001210D78F1B7F021210D78F1E7F03121027
:100F5C00D78F1F120D6B78227C007D007E007F02E4
:100F6C00120C2C85231D85221C7B007A0079221201
:100F7C0013C87B007A0079231213C81210437F0127
:010F8C002242
:10104300E51BC394327480948040028000E51EC384
:1010530094327480948040028000E51FC3943274FC
:1010630080948040028000E51DC394327480948094
:1010730040047E0180027E00AF06E51CC3943274F7
:1010830080948040047E0180027E00EE6003121192
:03109300167F01C4
:011096002237
:101116007E007F327D007B017A007946120CA37532
:1011260027FF7528127529A9851B2A851E2B851F61
:101136002C851D2D851C2E7B017A00794612085CB4
:0B1146007B017A0079461213C87F017C
:01115100227B
:10136C00EF4E601A8E198F1AE4F517F518C3E518AD
:0F137C00951AE5196480F8E51764809840EF2210
:10143E00D2AF758911D2A9758CFF758AF6D28C221E
:10142D0075CAD975CBFF75C834759850D2ACD2AF8B
:01143D00228C
:0C145E00EF6004D2A48002C2A47F01222F
:03000B00021418C4
:10141800C0E0758CFF758AF60518E5187002051787
:05142800B2A7D0E03284
:08119B0002480000023D0000C3
:03148500DFFE2265
:1013AA00D3EF9400EE940040147D6E7C00ED1D7026
:0D13BA00011CED4C70F7EF1F70E61E80E384
:0113C7002203
:10140100D2A37F02121485C2A37F1E7E001213AAEB
:07141100D2A37F1E02148527
:10132000E4FEFDEDC3940874809480501630A3FD54
:101330007F08121485EE25E0FE30A3010E20A3FDE8
:051340000D80E0AF0686
:011345002285
:100D6B007E007F027D007B007A007924120CA31297
:100D7B00140130A303020E1730A3FD7F2812148534
:100D8B001213208F26121320A907121320AC07125F
:100D9B001320AB071213208F2B7F19121485E9FF39
:100DAB00E5262FFFE433FEEC7583002FFFE5833E32
:100DBB00FEEB2FFFE5833EFEE52BB5070EE583B576
:100DCB00060985262789288C298B2A85272485299E
:100DDB0025E52775F00A842430F53FE52775F00AE1
:100DEB0084E5F02430F54075415275424875432037
:100DFB00754420E52975F00A842430F545E52975FD
:100E0B00F00A84E5F02430F5467547437B007A0001
:020E1B00792438
:010E1D0022B2
:0811A300025500000253000098
:1010D700E4FEEFFD3395E0FCC364809480400BD3BE
:1010E700ED9407EC6480948040037F0022EF139215
:1010F700B4EFA2E192B5A2E292B6C2A5C2B2D2B251
:0E11070000C2B230A6FDD2A5AE80C2A5AF06D2
:0111150022B7
:02148800200042
:0B11AB00024D0000024B0000014A0052
:1013C8007527FF752814752988752A01752B0075EE
:0C13D8002C32121097EF7002FF227F01F0
:0113E40022E6
:061097008B248A25892646
:10109D00E4F52D12138BE52DC3952A502AAB24AA06
:1010AD0025A9261212D1AE2BAF2C7C007D64120C1B
:1010BD006B12136CAB27AA28A929121346EF6003F4
:0910CD007F0122052D80CF7F0078
:0110D60022F7
:10138B00E4FFEFC3944674809480500F74002FF5E4
:0E139B0082E43400F583E4F00F80E7E4F54AC5
:0113A9002221
:1012D1008B2E8A2F893012138BAB2EAA2FA9301295
:1012E1000C5260130530E5307002052F14F9120C11
:0812F10052FF12146A80E22290
:0C146A00C2AC8F993099FDC299D2AC221F
:101346008B2E8A2F8930C2AC8B348A3589367B0145
:101356007A007900120EAAE94A4B6005D2AC7F01E9
:0613660022D2AC7F002240
:0300230002115275
:10115200C0E0C083C082C0D0309820C298740025FD
:101162004AF582E43400F583E599F0054AC3E54A7D
:101172009446748094804003754A00309902C29963
:09118200D0D0D082D083D0E0323D
:10144E00050109080A02060450109080A020604091
:0811B60002590000025700007D
:0611F3008F228C238D24E5
:1011F900852325852426E4F527F528C3E5289524A4
:10120900E527952350130528E528700205277D0158
:0C1219007C00AF22120FE880E202147D7E
:061225008F228C238D24B2
:10122B00852325852426E4F527F528C3E528952471
:10123B00E527952350130528E528700205277D0126
:0C124B007C00AF22120F8D80E2021481A3
:04147D00E4F59022E0
:04148100E4F59022DC
:040F8D008C298D2AF4
:100F9100E4F52BEF6028E4F52BC3E52B940874806E
:100FA10094805042E52B90145693F590AE29AF2AC8
:100FB1007C007D64120C6B12136C052B80DB752B8E
:100FC10007D3E52B940074809480401AE52B90148C
:100FD1005693F590AE29AF2A7C007D64120C6B12FA
:060FE100136C152B80DBF0
:010FE70022E7
:040FE8008C298D2A99
:100FEC00E4F52BEF6028E4F52BC3E52B9408748013
:100FFC0094805042E52B90144E93F590AE29AF2A75
:10100C007C007D64120C6B12136C052B80DB752B32
:10101C0007D3E52B940074809480401AE52B901430
:10102C004E93F590AE29AF2A7C007D64120C6B12A6
:06103C00136C152B80DB94
:01104200228B
:03000000020E1ECF
:0C0E1E00787FE4F6D8FD75815A020E655D
:100B5C00E709F608DFFA8046E709F208DFFA803E7B
:100B6C0088828C83E709F0A3DFFA8032E309F60868
:100B7C00DFFA8078E309F208DFFA807088828C83D0
:100B8C00E309F0A3DFFA806489828A83E0A3F60884
:100B9C00DFFA805889828A83E0A3F208DFFA804C5E
:100BAC0080D280FA80C680D4806980F28033801035
:100BBC0080A680EA809A80A880DA80E280CA80339E
:100BCC0089828A83ECFAE493A3C8C582C8CCC58316
:100BDC00CCF0A3C8C582C8CCC583CCDFE9DEE780E6
:100BEC000D89828A83E493A3F608DFF9ECFAA9F065
:100BFC00EDFB2289828A83ECFAE0A3C8C582C8CCBB
:100C0C00C583CCF0A3C8C582C8CCC583CCDFEADED3
:100C1C00E880DB89828A83E493A3F208DFF980CC35
:100C2C0088F0EF60010E4E60C388F0ED2402B4042E
:100C3C000050B9F582EB2402B4040050AF232345D5
:060C4C008223900BAC7343
:100C5200BB010689828A83E0225002E722BBFE02A0
:090C6200E32289828A83E49322D3
:100C6B00EF8DF0A4A8F0CF8CF0A428CE8DF0A42E9D
:020C7B00FE2257
:100C7D00BB010789828A83020D275005E9F8020D11
:100C8D000EBBFE05E9F8020D3089828A83020D390B
:060C9D008A838982E473E2
:10080000E5332427F8E605332278243007027827D9
:10081000E475F001120D17020C522000EB7F2ED26E
:10082000008018EF540F2490D43440D4FF30040BD0
:10083000EF24BFB41A0050032461FFE534600215B1
:10084000340537E5377002053630070D7824E47536
:10085000F001120D17EF020CFC0212F97403D2071B
:100860008003E4C207F5338B248A258926E4F53416
:10087000F536F537E53460077F2012083B80F575C3
:1008800035FFC201C200C202C203C205C206C208CD
:10089000120809FF700D3007057F0012084CAF37B2
:1008A000AE3622B4255FC2D5C204120809FF24D097
:1008B000B40A00501A75F00A783430D50508B6FF2E
:1008C0000106C6A426F620D5047002D20380D924DE
:1008D000CFB41A00EF5004C2E5D204020A4CD20190
:1008E00080C6D20080C0D20280BCD2D580BAD205E8
:1008F00080B47F2012083B2002077401B534004009
:10090000F1120800FF12083B020874D208D20680D8
:1009100095120800FB120800FA120800F94A4B7001
:1009200006791D7A0B7BFF20022EE534602A7E00BB
:100930008E82758300120CCF60060EEE653570F066
:10094000C2D5EBC0E0EAC0E0E9C0E0EE120A93D005
:10095000E0F9D0E0FAD0E0FB120C52FF60AAEBC045
:10096000E0EAC0E0E9C0E012083BD0E02401F9D0A1
:10097000E03400FAD0E0FBE5350460DCD535D98001
:10098000877BFF7A0A798FD202809C791080027966
:1009900008C206C2088008D2D5790A8004790AC242
:1009A000D5E535047002F535E4FAFDFEFF120800C6
:1009B000FC7B08200113120800FD7B1030000A1296
:1009C0000800FE120800FF7B20EC3382D592D55040
:1009D00013C3E43000069FFFE49EFEE42001039D64
:1009E000FDE49CFCE4CBF8C201EC700CCFCECDCC86
:1009F000E824F8F870F38017C3EF33FFEE33FEED11
:100A000033FDEC33FCEB33FB994002FB0FD8E9EBF1
:100A1000300105F8D0E0C448B201C0E00AEC4D4E08
:100A20004F78207B0070C2EAB5350040BCC0E012B0
:100A30000A95D0F0D0E0200104C4C0E0C4B201C0E7
:100A4000F0120824D0F0D5F0EB020874120D45091D
:100A50001153098B5808E24C08DE42098F4F099761
:0F0A60004409974908F743099D550981460981C3
:100A6F00450981470B3D5008E62D08EA2E090D2B4D
:100A7F0008EE23090B200B262A08A64800000905BB
:100A8F003F3F3F00790AA2D5200314300509B91062
:100A9F00020404B9080104A2D52006025001042063
:100AAF0002689202B534005034C0E07F2030031941
:100ABF007F30A20272067205500F120AECC202C2F8
:100ACF0006C205C2087F30800F300503E9C0E0126F
:100ADF00083B300503D0E0F9D0E0B534CC30051732
:100AEF007F30B9100C12083B7F583004077F788095
:100AFF0003B9080312083B3002057F2D02083B7F24
:100B0F00202008F87F2B2006F322920280CF286E38
:100B1F00756C6C2900D2011208003001F8C20178FF
:100B2F003430D50108F60208A62D50434958120853
:100B3F00002403B405004001E4900B389312082CF5
:0D0B4F00743A12082CD20375340402098B8D
:100EAA008B318A328933AB34AA35A936120C526097
:100EBA0063AB31AA32A933120C52605F853437858D
:100ECA0035388536398B3A8A3B893CAB37AA38A9FB
:100EDA0039120C52FF6023AB3AAA3BA93C120C52BE
:100EEA006F7017042539F539E43538F5387401255A
:100EFA003CF53CE4353BF53B80D1AB37AA38A93900
:100F0A00120C527002800D74012533F533E4353228
:100F1A00F532809DAB31AA32A933227B007A00795F
:020F2A000022A3
:100CA300EF4E6012EF60010EEDBB010B89828A8368
:100CB300F0A3DFFCDEFA2289F05007F709DFFCA975
:0C0CC300F022BBFEFCF309DFFCA9F022CC
:100E2A000213E5E493A3F8E493A34003F68001F2E6
:100E3A0008DFF48029E493A3F85407240CC8C333C9
:100E4A00C4540F4420C8834004F456800146F6DF98
:100E5A00E4800B010204081020408090118BE47E8C
:100E6A00019360BCA3FF543F30E509541FFEE4938D
:100E7A00A360010ECF54C025E060A840B8E493A354
:100E8A00FAE493A3F8E493A3C8C582C8CAC583CA7F
:100E9A00F0A3C8C582C8CAC583CADFE9DEE780BE37
:0111BE000030
:100CCF00BB010CE58229F582E5833AF583E02250DA
:100CDF0006E92582F8E622BBFE06E92582F8E22224
:0D0CEF00E58229F582E5833AF583E493223E
:100CFC00BB010689828A83F0225002F722BBFE01D7
:020D0C00F322D0
:090D0E00E6FB08E6FA08E6F9220A
:100D1700FAE6FB0808E6F925F0F618E6CA3AF622DD
:090D2700E0FBA3E0FAA3E0F922CD
:090D3000E2FB08E2FA08E2F922F4
:0C0D3900E493FB740193FA740293F92216
:100D4500D083D082F8E4937012740193700DA3A33D
:100D550093F8740193F5828883E473740293686051
:060D6500EFA3A3A380DF51
:1012F900EFB40A07740D121304740A309811A899EF
:10130900B8130CC2983098FDA899C298B811F63054
:0713190099FDC299F599222C
:00000001FF
