:0805220002590000025700001D
:10071D001205BA7F207EA1120685120003E9240678
:0C072D00F9E43AFA12014712016780E774
:08052A0002340000023200005F
:1005BA001207721207617526FF7527057528E575FA
:1005CA0029FF752A06752B0E752CFF752D04752EBD
:0B05DA0021752FFF753007753150228E
:070003007B007A0079262240
:1005E500EF24FE600F1460182402701A7DAA7C05A2
:1005F5007F0180067DAA7C05E4FF1205567F012256
:090605001207AC7F01227F0022E4
:10060E00EF24FE600F1460182402701A7DAA7C0578
:10061E007F0180067DAA7C05E4FF1205887F0122FA
:09062E001207B07F01227F0022B7
:10042100750800750900750A007E007F027D007B5A
:10043100007A00790B12016D7F021204698B088A20
:1004410009890A1201C0780B7C007D007E007F02C1
:100451001200F67B007A00790B1207007B007A000C
:07046100790C1207007F0077
:010468002271
:100750001207B78F087B007A0079081207007F0123
:010760002276
:10068500EF4E601B8E348F35E4F532F533C3E53319
:100695009535E5346480F8E53264809840EF222290
:10077200D2AF758911D2A9758CFF758AF6D28C22F7
:1007610075CAD975CBFF75C834759850D2ACD2AF64
:010771002265
:03000B0002000EE2
:10000E00C0E0758CFF758AF60533E5337002053254
:05001E00B2A7D0E032A2
:08053200025000000245000028
:0307B400DFFE2243
:1006C500D3EF9400EE940040147D6E7C00ED1D7018
:0D06D500011CED4C70F7EF1F70E61E80E376
:0106E20022F5
:10073900D2A37F021207B4C2A37F1E7E001206C590
:07074900D2A37F1E0207B4DA
:1006E300E4FEFD30A3FD7F081207B4EE25E0FE30E3
:0C06F300A3010E20A3FD0DBD08E9AF0619
:0106FF0022D8
:1001C0007E007F027D007B007A00790D12016D12A6
:1001D000073930A30302026C30A3FD7F281207B455
:1001E0001206E38F0F1206E3A9071206E3AC07120B
:1001F00006E3AB071206E38F147F191207B4E9FF79
:10020000E50F2FFFE433FEEC7583002FFFE5833EFF
:10021000FEEB2FFFE5833EFEE514B5070EE583B543
:100220000609850F1089118C128B1385100D85120C
:100230000EE51075F00A842430F547E51075F00AD4
:1002400084E5F02430F548754952754A48754B20CD
:10025000754C20E51275F00A842430F54DE51275D1
:10026000F00A84E5F02430F54E754F437B007A00A8
:02027000790D06
:010272002269
:08053A00024300000240000032
:10046900C3EF648094804008D3EF64809487400789
:100479007B007A00790022E4F542EF1392B4EFA2EF
:10048900E192B5A2E292B6C2A5C2B2D2B200C2B29C
:1004990030A6FDD2A5858042C2A51206A57B007AA9
:0404A900007936227E
:0307B700AF42222C
:1006A500C3EF648094804017D3EF64809487500F24
:1006B5007E007F0A7D007B007A00793612016D226B
:0207BA0020001D
:0B0542000255000002530000015200AF
:100700007510FF7511077512BA7513017514007510
:0C07100015321204ADEF7002FF227F01D1
:01071C0022BA
:0604AD008B0D8A0E890F81
:1004B300E4F516120792E516C39513502AAB0DAA5D
:1004C3000EA90F120637AE14AF157C007D6412011E
:1004D30035120685AB10AA11A91212065FEF60034D
:0904E3007F0122051680CF7F0085
:0104EC0022ED
:0D0792007F46900000E4F0A3DFFCE4F55288
:01079F002237
:100637008B178A188919120792AB17AA18A91912CA
:10064700011C60130519E5197002051814F9120148
:080657001CFF1207A080E22243
:0C07A000C2AC8F993099FDC299D2AC22F6
:10065F008B178A188919C2AC8B1D8A1E891F7B01C3
:10066F007A0079001202FFE94A4B6005D2AC7F0194
:06067F0022D2AC7F002234
:030023000204EDE7
:1004ED00C0E0C083C082C0D030981CC29874002573
:1004FD0052F582E43400F583E599F00552E552C3D7
:10050D0094464003755200309902C299D0D0D082E2
:05051D00D083D0E032A4
:10078200050109080A02060450109080A02060406A
:08054D00025D0000025B0000EA
:060556008F088C098D0ADC
:10055C0085090B850A0CE4F50DF50EC3E50E950A1D
:10056C00E50D95095013050EE50E7002050D7D0184
:0C057C007C00AF081203D180E20207AC43
:060588008F088C098D0AAA
:10058E0085090B850A0CE4F50DF50EC3E50E950AEB
:10059E00E50D95095013050EE50E7002050D7D0152
:0C05AE007C00AF0812038180E20207B05D
:0407AC00E4F59022BE
:0407B000E4F59022BA
:040381008C0F8D1040
:10038500E4F511EF6023E4F511E51190078A93F583
:1003950090AE0FAF107C007D641201351206850505
:1003A50011E511C3940840E122751107E511900785
:1003B5008A93F590AE0FAF107C007D641201351263
:0B03C50006851511E511D3940050E1EE
:0103D000220A
:0403D1008C0F8D10F0
:1003D500E4F511EF6023E4F511E51190078293F53B
:1003E50090AE0FAF107C007D6412013512068505B5
:1003F50011E511C3940840E122751107E511900735
:100405008293F590AE0FAF107C007D64120135121A
:0B04150006851511E511D3940050E19D
:0104200022B9
:0300000002027386
:0C027300787FE4F6D8FD75815E0202BAC7
:10002600E709F608DFFA8046E709F208DFFA803EBC
:1000360088828C83E709F0A3DFFA8032E309F608A9
:10004600DFFA8078E309F208DFFA807088828C8311
:10005600E309F0A3DFFA806489828A83E0A3F608C5
:10006600DFFA805889828A83E0A3F208DFFA804C9F
:1000760080D280FA80C680D4806980F28033801076
:1000860080A680EA809A80A880DA80E280CA8033DF
:1000960089828A83ECFAE493A3C8C582C8CCC58357
:1000A600CCF0A3C8C582C8CCC583CCDFE9DEE78027
:1000B6000D89828A83E493A3F608DFF9ECFAA9F0A6
:1000C600EDFB2289828A83ECFAE0A3C8C582C8CCFC
:1000D600C583CCF0A3C8C582C8CCC583CCDFEADE15
:1000E600E880DB89828A83E493A3F208DFF980CC77
:1000F60088F0EF60010E4E60C388F0ED2402B40470
:100106000050B9F582EB2402B4040050AF23234516
:06011600822390007673C5
:10011C00BB010689828A83E0225002E722BBFE02E1
:09012C00E32289828A83E4932214
:10013500EF8DF0A4A8F0CF8CF0A428CE8DF0A42EDE
:02014500FE2298
:10014700BB010789828A830201A25005E9F80201EF
:1001570099BBFE05E9F80201AB89828A830201B4E3
:060167008A838982E47323
:1002FF008B1A8A1B891CAB1DAA1EA91F12011C6019
:10030F0063AB1AAA1BA91C12011C605F851D2085F7
:10031F001E21851F228B238A248925AB20AA21A980
:10032F002212011CFF6023AB23AA24A92512011C52
:10033F006F7017042522F522E43521F5217401256C
:10034F0025F525E43524F52480D1AB20AA21A92257
:10035F0012011C7002800D7401251CF51CE4351B65
:10036F00F51B809DAB1AAA1BA91C227B007A007972
:02037F0000225A
:10016D00EF4E6012EF60010EEDBB010B89828A83A9
:10017D00F0A3DFFCDEFA2289F05007F709DFFCA9B6
:0C018D00F022BBFEFCF309DFFCA9F0220D
:10027F0002071DE493A3F8E493A34003F68001F271
:10028F0008DFF48029E493A3F85407240CC8C33380
:10029F00C4540F4420C8834004F456800146F6DF4F
:1002AF00E4800B0102040810204080900522E47EB8
:1002BF00019360BCA3FF543F30E509541FFEE49344
:1002CF00A360010ECF54C025E060A840B8E493A30B
:1002DF00FAE493A3F8E493A3C8C582C8CAC583CA36
:1002EF00F0A3C8C582C8CAC583CADFE9DEE780BEEE
:0105550000A5
:09019900E6FB08E6FA08E6F9228B
:0901A200E0FBA3E0FAA3E0F9225E
:0901AB00E2FB08E2FA08E2F92285
:0C01B400E493FB740193FA740293F922A7
:00000001FF
