:080AF70002300000022E000095
:100B6D00120B18120BB3E92406F9E43AFA12089E97
:030B7D000208BEAD
:080AFF000222000002200000A9
:100B1800120B937517FF75180A75197D751AFF75ED
:0F0B28001B0A751CA6751DFF751E0B751F562227
:070BB3007B007A0079172294
:100A7D00EF24FE600F1460182402701A7DAA7C0505
:100A8D007F0180067DAA7C05E4FF120A197F0122F1
:090A9D00120BBA7F01227F002236
:100AA600EF24FE600F1460182402701A7DAA7C05DC
:100AB6007F0180067DAA7C05E4FF120A4B7F012296
:090AC600120BBE7F01227F002209
:100B5600752400752500752600E4FF1209CD8B2447
:060B66008A2589267F00AC
:010B6C002266
:100B3700EF4E601A8E228F23E4F520F521C3E521BD
:0F0B47009523E5226480F8E52064809840EF2232
:100B9300D2AF758911D2A9758CFF758AF6D28C22D2
:03000B00020B8065
:100B8000C0E0758CFF758AF60521E521700205200D
:030B9000D0E03280
:080B07000215000002120000BB
:1009CD00EFFD3395E0FCC364809480400BD3ED9430
:1009DD0007EC6480948040077B007A00790022E464
:1009ED00F514EF1392B4EFA2E192B5A2E292B6C262
:1009FD00A5C2B2D2B200C2B230A6FDD2A585801476
:0C0A0D00C2A5120ACF7B007A00790822F3
:100ACF00EFFD3395E0FCC364809480401AD3ED941E
:100ADF0007EC64809480500F7E007F0A7D007B00BE
:080AEF007A0079081208C42204
:100BA300050109080A02060450109080A020604045
:080B0F00023400000232000074
:060A19008F248C258D26C0
:100A1F00852527852628E4F529F52AC3E52A952675
:100A2F00E52995255013052AE52A700205297D0130
:0C0A3F007C00AF2412097280E2020BBAA6
:060A4B008F248C258D268E
:100A5100852527852628E4F529F52AC3E52A952643
:100A6100E52995255013052AE52A700205297D01FE
:0C0A71007C00AF2412091780E2020BBECB
:040BBA00E4F59022AC
:040BBE00E4F59022A8
:040917008C2B8D2C6C
:10091B00E4F52DEF6028E4F52DC3E52D94087480E4
:10092B0094805042E52D900BAB93F590AE2BAF2CF2
:10093B007C007D6412088C120B37052D80DB752D26
:10094B0007D3E52D940074809480401AE52D900B0D
:10095B00AB93F590AE2BAF2C7C007D6412088C1200
:06096B000B37152D80DBA7
:010971002263
:040972008C2B8D2C11
:10097600E4F52DEF6028E4F52DC3E52D9408748089
:1009860094805042E52D900BA393F590AE2BAF2C9F
:100996007C007D6412088C120B37052D80DB752DCB
:1009A60007D3E52D940074809480401AE52D900BB2
:1009B600A393F590AE2BAF2C7C007D6412088C12AD
:0609C6000B37152D80DB4C
:0109CC002208
:03000000020800F3
:0C080000787FE4F6D8FD758135020847CA
:10088C00EF8DF0A4A8F0CF8CF0A428CE8DF0A42E80
:02089C00FE223A
:10089E00BB010789828A830208F95005E9F802082C
:1008AE00F0BBFE05E9F802090289828A8302090B70
:0608BE008A838982E473C5
:1008C400EF4E6012EF60010EEDBB010B89828A834B
:1008D400F0A3DFFCDEFA2289F05007F709DFFCA958
:0C08E400F022BBFEFCF309DFFCA9F022AF
:10080C00020B6DE493A3F8E493A34003F68001F28A
:10081C0008DFF48029E493A3F85407240CC8C333ED
:10082C00C4540F4420C8834004F456800146F6DFBC
:10083C00E4800B0102040810204080900AF7E47E4B
:10084C00019360BCA3FF543F30E509541FFEE493B1
:10085C00A360010ECF54C025E060A840B8E493A378
:10086C00FAE493A3F8E493A3C8C582C8CAC583CAA3
:10087C00F0A3C8C582C8CAC583CADFE9DEE780BE5B
:010B170000DD
:0908F000E6FB08E6FA08E6F9222D
:0908F900E0FBA3E0FAA3E0F92200
:09090200E2FB08E2FA08E2F92226
:0C090B00E493FB740193FA740293F92248
:00000001FF
